:020000040000FA
:100000000000F30000003F000000F30000003F008C
:1000100000000F0020207F00000000000000000012
:1000200000000000000000000000000000000000D0
:1000300000000000000000000000000000742882A2
:10004000210000000000000000000000000000008F
:1000500000000000000000000000000000000000A0
:10006000001100100000000000000000000000006F
:10007000004203000008000000140000000000001F
:10008000000006000000000000000000000000006A
:1000900000410F0000000000000000000000000010
:1000A0000000000000000000000000000000000050
:1000B000210000000000000000000000000000001F
:1000C000000000000000FFBF000000000000000072
:1000D0000000000000000000000000000000000020
:1000E0000000000000000000000000000000000010
:1000F0000000000000000000000000000000000000
:1001000000000000000000000000000000000000EF
:1001100000000000000000000000000000000000DF
:1001200000000200000000000000000000000000CD
:1001300000000000000000000000000000000000BF
:1001400000000000000000000000FFFF00000000B1
:10015000000000000000000000000000000000009F
:10016000000000000000000000000000000000008F
:10017000000000000000000000000000000000007F
:10018000000000000000000000000000000000006F
:100400000000000000000000F300000000000000F9
:1004100000000000000000000000000000000000DC
:1004200000000000000000003F000000000000008D
:1004300000000000000000000000000000000000BC
:100440000000000000000000F300000000000000B9
:10045000000000000000000000000000000000009C
:1004600000000000000000003F000000000000004D
:10047000000000000000000000000000000000007C
:1004800000000000000000000F000000000000005D
:10049000000000000000000000000000000000005C
:1004A00020202020202020207F00000000000000CD
:1004B000000000000000000000000000000000003C
:1004C000000000000000000000000000000000002C
:1004D000000000000000000000000000000000001C
:1004E000000000000000000000000000000000000C
:1004F00000000000000000000000000000000000FC
:1005000000000000000000000000000000000000EB
:1005100000000000000000000000000000000000DB
:1005200000000000000000000000000000000000CB
:1005300000000000000000000000000000000000BB
:1005400000000000000000000000000000000000AB
:10055000000000000000000000000000000000009B
:10056000000000000000000000000000000000008B
:10057000000000000000000000000000000000007B
:10058000000000000000000000000000000000006B
:10059000000000000000000000000000000000005B
:1005A000000000000000000000000000000000004B
:1005B000000000000000000000000000000000003B
:1005C000000000000000000000000000000000002B
:1005D000000000000000000000000000000000001B
:1005E000000000000000000000000000000000000B
:1005F00000000000000000000000000000000000FB
:1006000000000000000000000000000000000000EA
:1006100000000000000001080000000000000000D1
:1006200000000000000000000000000000000000CA
:1006300000000000000000000000000000000000BA
:1006400000000000000000000000000000000000AA
:10065000000000000000000000000000000000009A
:10066000000000000000000000000000000000008A
:10067000000000000000000000000000000000007A
:1006800000000000FF030000000000000000000068
:10069000000000000000000000000000000000005A
:1006A000000000000000000000000000000000004A
:1006B000000000000000000000000000000000003A
:1006C000000000000000000000000000000000002A
:1006D000000000000000000000000000000000001A
:1006E000000000000000000000000000000000000A
:1006F00000000000000000000000000000000000FA
:1007000000000000000000000000000000000000E9
:1007100000000000000000000000000000000000D9
:1007200000000000000000000000000000000000C9
:1007300000000000000000000000000000000000B9
:1007400000000000000000000000000000000000A9
:100750000000000000000000000000000000000099
:100760000000000000000000000000000000000089
:100770000000000000000000000000000000000079
:100780000000000000000000000000000000000069
:100790000000000000000000000000000000000059
:1007A0000000000000000000000000000000000049
:1007B0000000000000000000000000000000000039
:1007C0000000000000000000000000000000000029
:1007D0000000000000000000000000000000000019
:1007E0000000000000000000000000000000000009
:1007F00000000000000000000000000000000000F9
:1008000000000000200000030000000000000000C5
:1008100000000000000000000000000000000000D8
:1008200000000000200000030000000000000000A5
:1008300000000000000000000000000000000000B8
:100840000000000020000003000000000000000085
:100850000000000000000000000000000000000098
:100860000000000020000003000000000000000065
:100870000000000000000000000000000000000078
:100880000000000000000000000000000000000068
:100890000000000000000000000000000000000058
:1008A0000000000000000000000000000000000048
:1008B0000000000000000000000000000000000038
:1008C0000000000000000000000000000000000028
:1008D0000000000000000000000000000000000018
:1008E0000000000000000000000000000000000008
:1008F00000000000000000000000000000000000F8
:1009000000000000000000000000000000000000E7
:1009100000000000000000000000000000000000D7
:1009200000000000000000000000000000000000C7
:1009300000000000000000000000000000000000B7
:1009400000000000000000000000000000000000A7
:100950000000000000000000000000000000000097
:100960000000000000000000000000000000000087
:100970000000000000000000000000000000000077
:100980000000000000000000000000000000000067
:100990000000000000000000000000000000000057
:1009A0000000000000000000000000000000000047
:1009B0000000000000000000000000000000000037
:1009C0000000000000000000000000000000000027
:1009D0000000000000000000000000000000000017
:1009E0000000000000000000000000000000000007
:1009F00000000000000000000000000000000000F7
:100A000000000000000000000000000000000000E6
:100A100000000000000000000000000000000000D6
:100A2000000000000000FFFF0000000000000000C8
:100A3000000000000000FFFF0000000000000000B8
:100A400000000000000000000000000000000000A6
:100A50000000000000000000000000000000000096
:100A60000000000000000000000000000000000086
:100A70000000000000000000000000000000000076
:100A80000100000000010001001009011027000012
:100A90000000000000000000000000000000000056
:100AA0000000000000000000000000000000000046
:100AB0000000000000000000000000000000000036
:100AC0000000000000000000000000000000000026
:100F000000010000000000000000000000000000E0
:100F100000000000000000000000000000000000D1
:100F200000000000000000000000000000000000C1
:100F300000000000000000000000000000000000B1
:100F400000000000000000000000000000000000A1
:100F50000000000000000000000000000000000091
:100F60000000000000000000000000000000000081
:100F70000000000000000000000000000000000071
:100F8000000000000000000002200000042000001B
:100F9000000000002401000074280000820000000E
:100FA00000010203040506070809101112131415A5
:100FB00020001819202122232425262735285430E3
:100FC0000000000000000000000000000000000021
:100FD0000000000000000000000000000000000011
:100FE0000000000000000000000000000000000001
:100FF00000000000000000000000000000000000F1
:10100000030000000100009100000A010000000040
:1010100000000000000000000000000000000000D0
:10102000030000000100009100000A010000000020
:1010300000000000000000000000000000000000B0
:10104000030000000100009100000A010000000000
:101050000000000000000000000000000000000090
:10106000030000000100009100000A0100000000E0
:101070000000000000000000000000000000000070
:101080000000000000000000000000000000000060
:101090000000000000000000000000000000000050
:1010A0000000000000000000000000000000000040
:1010B0000000000000000000000000000000000030
:1010C0000000000000000000000000000000000020
:1010D0000000000000000000000000000000000010
:1010E0000000000000000000000000000000000000
:1010F00000000000000000000000000000000000F0
:101100001E965151504A53532026B63F24FF410F9B
:1011100006FFFFFF1408C303C30342034203EFF8B3
:101120008BF7FDFCFDFDFFFFFFFFFFFFFFFFFFFF54
:10113000FFFFFFFFFFFFFFFFFFFFFFFFFFFFFFFFBF
:10114000000000000000000000000000000000009F
:10115000000000000000000000000000000000008F
:10116000000000000000000000000000000000007F
:10117000000000000000000000000000000000006F
:101180001E965151504A53532026B63F24FF410F1B
:1011900006FFFFFF1408C303C30342034203EFF833
:1011A0008BF7FDFCFDFDFFFFFFFFFFFFFFFFFFFFD4
:1011B000FFFFFFFFFFFFFFFFFFFFFFFFFFFFFFFF3F
:1011C000000000000000000000000000000000001F
:1011D000000000000000000000000000000000000F
:1011E00000000000000000000000000000000000FF
:1011F00000000000000000000000000000000000EF
:10120000FFFFFFFFF7FFAA55F79DFC991213170583
:101210000509FFFFFFFFFFFFFFFFFFFFFFFFFFFFCE
:10122000FFFFFFFFFFFFFFFFFFFFFFFFFFFFFFFFCE
:10123000FFFFFFFFFFFFFFFFFFFFFFFFFFFFFFFFBE
:10124000FFFFFFFFF7FFAA55F79DFC991213170543
:101250000509FFFFFFFFFFFFFFFFFFFFFFFFFFFF8E
:10126000FFFFFFFFFFFFFFFFFFFFFFFFFFFFFFFF8E
:10127000FFFFFFFFFFFFFFFFFFFFFFFFFFFFFFFF7E
:10128000000002FF00E5000000FFC5FFFFFF131292
:101290003E2B43D58664A268FFFE674694683231D0
:1012A000FFFFFFFFFFFFFFFFFFFFFFFFFFFFFFFF4E
:1012B000FFFFFFFFFFFFFFFFFFFFFFFFFFFFFFFF3E
:1012C000000002FF00E5000000FFC5FFFFFF131252
:1012D0003E2B43D58664A268FFFE67469468323190
:1012E000FFFFFFFFFFFFFFFFFFFFFFFFFFFFFFFF0E
:1012F000FFFFFFFFFFFFFFFFFFFFFFFFFFFFFFFFFE
:10130000FFFFFFFFFFFFFFFFFFFFFFFFFFFFFFFFED
:10131000FFFFFFFFFFFFFFFFFFFFFFFFFFFFFFFFDD
:10132000FFFFFFFFFFFFFFFFFFFFFFFFFFFFFFFFCD
:10133000FFFFFFFFFFFFFFFFFFFFFFFFFFFFFFFFBD
:10134000FFFFFFFFFFFFFFFFFFFFFFFFFFFFFFFFAD
:10135000FFFFFFFFFFFFFFFFFFFFFFFFFFFFFFFF9D
:10136000FFFFFFFFFFFFFFFFFFFFFFFFFFFFFFFF8D
:10137000FFFFFFFFFFFFFFFFFFFFFFFFFFFFFFFF7D
:10138000000000000000000000000000000000005D
:10139000000000000000000000000000000000004D
:1013A000000000000000000000000000000000003D
:1013B000000000000000000000000000000000002D
:1013C000000000000000000000000000000000001D
:1013D000000000000000000000000000000000000D
:1013E00000000000000000000000000000000000FD
:1013F00000000000000000000000000000000000ED
:1014000001FFFFFFFFFFFFFFFFFFFFFFFFFFFFFFEA
:10141000FFFFFFFFFFFFFFFFFFFFFFFFFFFFFFFFDC
:10142000FFFFFFFFFFFFFFFFFFFFFFFFFFFFFFFFCC
:10143000FFFFFFFFFFFFFFFFFFFFFFFFFFFFFFFFBC
:10144000FFFFFFFFFFFFFFFFFFFFFFFFFFFFFFFFAC
:101800000000000102030000000100181920000080
:10181000000001020300000001001819202122230A
:10182000000102033031B5010018192021222300E4
:101830000102033031B501001819202122230001D3
:1018400002033031B50100181920212223000102C2
:10185000033031B5010018192021222300010203B1
:101860003031B50100181920212223000102033074
:1018700031B5010018192021222300010203303163
:10188000B50100181920212223000102033031B5CF
:101890000100181920212223000102033031B50173
:1018A00000181920212223000102033031B5010064
:1018B000181920212223000102033031B50100183C
:1018C0001920212223000102033031B5010018192B
:1018D00020212223000102033031B5010018192014
:1018E000212223000102033031B501001819202103
:1018F0002223000102033031B501001819202122F2
:1019000023000102033031B50100181920212223E0
:10191000000102033031B5010018192021222300F3
:101920000102033031B501001819202122230001E2
:1019300002033031B50100181920212223000102D1
:10194000033031B5010018192021222300010203C0
:101950003031B50100181920212223000102033083
:1019600031B5010018192021222300010203303172
:10197000B50100181920212223000102033031B5DE
:101980000100181920212223000102033031B50182
:1019900000181920212223000102033031B5010073
:1019A000181920212223000102033031B50100184B
:1019B0001920212223000102033031B5010018193A
:1019C00020212223000102033031B5010018192023
:1019D000212223000102033031B501001819202112
:1019E0002223000102033031B50100181920212201
:1019F00023000102033031B50100181920212223F0
:101A0000000102033031B501001819202122230002
:101A10000102033031B501001819202122230001F1
:101A200002033031B50100181920212223000102E0
:101A3000033031B5010018192021222300010203CF
:101A40003031B50100181920212223000102033092
:101A500031B5010018192021222300010203303181
:101A6000B50100181920212223000102033031B5ED
:101A70000100181920212223000102033031B50191
:101A800000181920212223000102033031B5010082
:101A9000181920212223000102033031B50100185A
:101AA0001920212223000102033031B50100181949
:101AB00020212223000102033031B5010018192032
:101AC000212223000102033031B501001819202121
:101AD0002223000102033031B50100181920212210
:101AE00023000102033031B50100181920212223FF
:101AF000000102033031B501001819202122230012
:101B00000102033031B50100181920212223000100
:101B100002033031B50100181920212223000102EF
:101B2000033031B5010018192021222300010203DE
:101B30003031B501001819202122230001020330A1
:101B400031B5010018192021222300010203303190
:101B5000B50100181920212223000102033031B5FC
:101B60000100181920212223000102033031B501A0
:101B700000181920212223000102033031B5010091
:101B8000181920212223000102033031B501001869
:101B90001920212223000102033031B50100181958
:101BA00020212223000102033031B5010018192041
:101BB000212223000102033031B501001819202130
:101BC0002223000102033031B5010018192021221F
:101BD00023000102033031B501001819202122230E
:101BE000000102033031B501001819202122230021
:101BF0000102033031B50100181920212223000110
:101C000002033031B50100181920212223000102FE
:101C1000033031B5010018192021222300010203ED
:101C20003031B501001819202122230001020330B0
:101C300031B501001819202122230001020330319F
:101C4000B50100181920212223000102033031B50B
:101C50000100181920212223000102033031B501AF
:101C600000181920212223000102033031B50100A0
:101C7000181920212223000102033031B501001878
:101C80001920212223000102033031B50100181967
:101C900020212223000102033031B5010018192050
:101CA000212223000102033031B50100181920213F
:101CB0002223000102033031B5010018192021222E
:101CC00023000102033031B501001819202122231D
:101CD000000102033031B501001819202122230030
:101CE0000102033031B5010018192021222300011F
:101CF00002033031B501001819202122230001020E
:101D0000033031B5010018192021222300010203FC
:101D10003031B501001819202122230001020330BF
:101D200031B50100181920212223000102033031AE
:101D3000B50100181920212223000102033031B51A
:101D40000100181920212223000102033031B501BE
:101D500000181920212223000102033031B50100AF
:101D6000181920212223000102033031B501001887
:101D70001920212223000102033031B50100181976
:101D800020212223000102033031B501001819205F
:101D9000212223000102033031B50100181920214E
:101DA0002223000102033031B5010018192021223D
:101DB00023000102033031B501001819202122232C
:101DC000000102033031B50100181920212223003F
:101DD0000102033031B5010018192021222300012E
:101DE00002033031B501001819202122230001021D
:101DF000033031B50100181920212223000102030C
:101E00003031B501001819202122230001020330CE
:101E100031B50100181920212223000102033031BD
:101E2000B50100181920212223000102033031B529
:101E30000100181920212223000102033031B501CD
:101E400000181920212223000102033031B50100BE
:101E5000181920212223000102033031B501001896
:101E60001920212223000102033031B50100181985
:101E700020212223000102033031B501001819206E
:101E8000212223000102033031B50100181920215D
:101E90002223000102033031B5010018192021224C
:101EA00023000102033031B501001819202122233B
:101EB000000102033031B50100181920212223004E
:101EC0000102033031B5010018192021222300013D
:101ED00002033031B501001819202122230001022C
:101EE000033031B50100181920212223000102031B
:101EF0003031B501001819202122230001020330DE
:101F000031B50100181920212223000102033031CC
:101F1000B50100181920212223000102033031B538
:101F20000100181920212223000102033031B501DC
:101F300000181920212223000102033031B50100CD
:101F4000181920212223000102033031B5010018A5
:101F50001920212223000102033031B50100181994
:101F600020212223000102033031B501001819207D
:101F7000212223000102033031B50100181920216C
:101F80002223000102033031B5010018192021225B
:101F900023000102033031B501001819202122234A
:101FA000000102033031B50100181920212223005D
:101FB0000102033031B5010018192021222300014C
:101FC00002033031B501001819202122230001023B
:101FD000033031B50100181920212223000102032A
:101FE0003031B501001819202122230001020330ED
:101FF00031B50100181920212223000102033031DC
:102000000000000102030000000100181920000078
:102010000000010203000000010018192021222302
:10202000000102033031B5010018192021222300DC
:102030000102033031B501001819202122230001CB
:1020400002033031B50100181920212223000102BA
:10205000033031B5010018192021222300010203A9
:102060003031B5010018192021222300010203306C
:1020700031B501001819202122230001020330315B
:10208000B50100181920212223000102033031B5C7
:102090000100181920212223000102033031B5016B
:1020A00000181920212223000102033031B501005C
:1020B000181920212223000102033031B501001834
:1020C0001920212223000102033031B50100181923
:1020D00020212223000102033031B501001819200C
:1020E000212223000102033031B5010018192021FB
:1020F0002223000102033031B501001819202122EA
:1021000023000102033031B50100181920212223D8
:10211000000102033031B5010018192021222300EB
:102120000102033031B501001819202122230001DA
:1021300002033031B50100181920212223000102C9
:10214000033031B5010018192021222300010203B8
:102150003031B5010018192021222300010203307B
:1021600031B501001819202122230001020330316A
:10217000B50100181920212223000102033031B5D6
:102180000100181920212223000102033031B5017A
:1021900000181920212223000102033031B501006B
:1021A000181920212223000102033031B501001843
:1021B0001920212223000102033031B50100181932
:1021C00020212223000102033031B501001819201B
:1021D000212223000102033031B50100181920210A
:1021E0002223000102033031B501001819202122F9
:1021F00023000102033031B50100181920212223E8
:10220000000102033031B5010018192021222300FA
:102210000102033031B501001819202122230001E9
:1022200002033031B50100181920212223000102D8
:10223000033031B5010018192021222300010203C7
:102240003031B5010018192021222300010203308A
:1022500031B5010018192021222300010203303179
:10226000B50100181920212223000102033031B5E5
:102270000100181920212223000102033031B50189
:1022800000181920212223000102033031B501007A
:10229000181920212223000102033031B501001852
:1022A0001920212223000102033031B50100181941
:1022B00020212223000102033031B501001819202A
:1022C000212223000102033031B501001819202119
:1022D0002223000102033031B50100181920212208
:1022E00023000102033031B50100181920212223F7
:1022F000000102033031B50100181920212223000A
:102300000102033031B501001819202122230001F8
:1023100002033031B50100181920212223000102E7
:10232000033031B5010018192021222300010203D6
:102330003031B50100181920212223000102033099
:1023400031B5010018192021222300010203303188
:10235000B50100181920212223000102033031B5F4
:102360000100181920212223000102033031B50198
:1023700000181920212223000102033031B5010089
:10238000181920212223000102033031B501001861
:102390001920212223000102033031B50100181950
:1023A00020212223000102033031B5010018192039
:1023B000212223000102033031B501001819202128
:1023C0002223000102033031B50100181920212217
:1023D00023000102033031B5010018192021222306
:1023E000000102033031B501001819202122230019
:1023F0000102033031B50100181920212223000108
:1024000002033031B50100181920212223000102F6
:10241000033031B5010018192021222300010203E5
:102420003031B501001819202122230001020330A8
:1024300031B5010018192021222300010203303197
:10244000B50100181920212223000102033031B503
:102450000100181920212223000102033031B501A7
:1024600000181920212223000102033031B5010098
:10247000181920212223000102033031B501001870
:102480001920212223000102033031B5010018195F
:1024900020212223000102033031B5010018192048
:1024A000212223000102033031B501001819202137
:1024B0002223000102033031B50100181920212226
:1024C00023000102033031B5010018192021222315
:1024D000000102033031B501001819202122230028
:1024E0000102033031B50100181920212223000117
:1024F00002033031B5010018192021222300010206
:10250000033031B5010018192021222300010203F4
:102510003031B501001819202122230001020330B7
:1025200031B50100181920212223000102033031A6
:10253000B50100181920212223000102033031B512
:102540000100181920212223000102033031B501B6
:1025500000181920212223000102033031B50100A7
:10256000181920212223000102033031B50100187F
:102570001920212223000102033031B5010018196E
:1025800020212223000102033031B5010018192057
:10259000212223000102033031B501001819202146
:1025A0002223000102033031B50100181920212235
:1025B00023000102033031B5010018192021222324
:1025C000000102033031B501001819202122230037
:1025D0000102033031B50100181920212223000126
:1025E00002033031B5010018192021222300010215
:1025F000033031B501001819202122230001020304
:102600003031B501001819202122230001020330C6
:1026100031B50100181920212223000102033031B5
:10262000B50100181920212223000102033031B521
:102630000100181920212223000102033031B501C5
:1026400000181920212223000102033031B50100B6
:10265000181920212223000102033031B50100188E
:102660001920212223000102033031B5010018197D
:1026700020212223000102033031B5010018192066
:10268000212223000102033031B501001819202155
:102690002223000102033031B50100181920212244
:1026A00023000102033031B5010018192021222333
:1026B000000102033031B501001819202122230046
:1026C0000102033031B50100181920212223000135
:1026D00002033031B5010018192021222300010224
:1026E000033031B501001819202122230001020313
:1026F0003031B501001819202122230001020330D6
:1027000031B50100181920212223000102033031C4
:10271000B50100181920212223000102033031B530
:102720000100181920212223000102033031B501D4
:1027300000181920212223000102033031B50100C5
:10274000181920212223000102033031B50100189D
:102750001920212223000102033031B5010018198C
:1027600020212223000102033031B5010018192075
:10277000212223000102033031B501001819202164
:102780002223000102033031B50100181920212253
:1027900023000102033031B5010018192021222342
:1027A000000102033031B501001819202122230055
:1027B0000102033031B50100181920212223000144
:1027C00002033031B5010018192021222300010233
:1027D000033031B501001819202122230001020322
:1027E0003031B501001819202122230001020330E5
:1027F00031B50100181920212223000102033031D4
:1028000000000000000000000000000000000000C8
:10281000000000003130272625242322212019180A
:10282000000015141312111009080706050403020D
:1028300001287224250000000000000000000000B4
:102840000000000000000000000000000000000088
:102850000000000000000000000000000000000078
:102860000000000000000000000000000000000068
:10287000000587012313280000133013307528103A
:1028800030030000000000752800000102286D617F
:10289000696E000000000100000000000000000060
:1028A00000000000000000000000000000000031F7
:1028B000302726252423222120191800001514135F
:1028C000121110090807060504030201290D8000F2
:1028D00000000000000000000000000000000000F8
:1028E00000000000000000000000000000000000E8
:1028F00000000000000000000000000000000000D8
:102900000000000000000000000000000000063C85
:10291000AE2800000A300A301029073004000000F9
:10292000000010290000009D2849444C450000008B
:102930000000000000000000000000000000000097
:102940000000000000000000000000000000000087
:102950000000000000000000000000000000000077
:102960000000000000000000000000000000000067
:1030000000360102287528010A30FFFF1229122913
:10301000011330FFFF77287728001C30FFFF1C309A
:103020001C30002530FFFF25302530002E30FFFFFB
:103030002E302E30003730FFFF373037302B303412
:1030400030004430FFFF44304430004D30FFFF4D2E
:10305000304D30020000010100000002FFFF102986
:103060000095959595959595959595820C77280061
:10307000500A8C280104FE03B501AC057C011E0634
:10308000609D281029730000000000005E301029A8
:103090001029740D01280000000000000000005EEF
:1030A00030245C8ED7C740643FCDC8B563DFA350E2
:1030B0002002B8683C7B95DB7B9DE73143EAF4DC7A
:1030C0005A438D4A317F834D7C091DD17E7272FC3B
:1030D00092B0D5C0571E1B0563F226E607A9D0B5EE
:1030E000D4CAB8AF97EE74C3AB29F89A873BAE90B9
:1030F000B20FBE595BB0E2E3C9069278CD93D29786
:1031000017739648DECC16F91DDFA77C31B1332B3F
:1031100025BFC35A68B736861FBCBCDB140406C87B
:10312000C367F93D957691F0F45CA381AA58797E46
:10313000B067648342083157F3925FA0DBF5A13496
:1031400066FA16C26AF134E3C157FF075571625936
:10315000A94460B58EF568D7E729F1D896DA061E3E
:10316000F8D072E6D03EE72C16B46873F3947ABABE
:1031700051E4A17BE67FC8F4291708B625FE205D3F
:103180009642E1F4D295CD5030E12224822A217872
:1031900081CFBC1E177B257171FCFDB9DAD5D0DB60
:1031A00094D27A1F33A78FD5F621ED65810FDB8985
:1031B000EE5D1054D1647A318809AFD9FEF177CB36
:1031C0002C8B259BF722689E48AC9B36D19B84C8EC
:1031D0002F6D8161448013353DB4DD94F99F1A054C
:1031E0000B1F265FBB8D8D2B1EF73DAA711EF6A807
:1031F000AA056F45D5BE6BABA8F425773639673580
:10320000651E2826C8F42FDDC5F06F2DC21B4BC1EB
:103210009AD6F87AD30CC660C59CFFDCDA98307574
:103220006D1D5F687FA6F3210AB766204745399771
:10323000F6979AFEA2755EF864901AC24667F76424
:103240007D902CFFDEEB8C1B60E0A352A5C67F6255
:10325000CBB7EA020BB9B0BA5AD675C61B15475B95
:103260005EA7003EDFBDA0135DB9F43775FE1DAD4E
:1032700032CA2DED63B27770B35CCE2FB1FEE43964
:10328000AF2CF7C3F87D5D39410332B5BE313F6ADB
:10329000FA442305C810FC02F1A0598CFA2190933E
:1032A0005DA4F1D3FDD22FE23A31B8894EA32C4F61
:1032B000F01E8EFB753B1F2BEFDD87EA5824098437
:1032C00072C7BAABD4FA19AB646BF10FB819B58EEB
:1032D0005598FA99BA4145A98E22477CF2C8D79BE6
:1032E0005E370FB2424CEFCBCC72E5376252340EF0
:1032F000AD389325E363ED064E7A49F86315925C89
:10330000CE1515B792D6859195022B5ED4E298CD55
:10331000092A4FEEF69CCF662F9FE28A0A28B8E86A
:10332000302867EBA4F949A6C0A6506A6315742734
:10333000B51DA701A222BC028878FE9E8EA86E9AB7
:10334000D930496DB7958D3BCE04F920A6C75AEE0A
:103350003F204B10E7193495A8864010950620466B
:10336000ADBE09BFCDBE5D939C4472E561788ED43D
:103370009B343D08280B3A338FFC32B9EDDB0567EF
:10338000CB76C04A5C648D0FDE386A24AC3A364591
:10339000BBCADCABD279B3E27A38694D7898DDE309
:1033A0004D8CCFBD28BDD53F6A195569E08A501DA7
:1033B0008A846A116960AE41BEFC6656965D3E4FD6
:1033C0007BCF5CDD77D5023CC07D593F46EF64AFD3
:1033D0008F607341A53BE62B748204BC23450CDE51
:1033E000C65CE028A63CA5F02F2D0C5DFC2358B44C
:1033F0003F329F0FB8E0DFA23002DD326BE8414779
:1034000033B56D891E0EFA2F315107F306F47DCDC9
:1034100009555C0C04A9507B3C604DA8985D7EEE7C
:10342000E7692FA37AEAF85EAA123A8F2A23575146
:1034300014A87BEC77D2D53B36C3C191ABA181E216
:10344000909018EBB2E760A749B4B94ED50F184970
:10345000080B1BC5BDD700FD27ECB2476E2CD1FE73
:10346000E88D2CEB98504363A4A7DFEFC861410DB2
:103470006AC7D914417A732BC884DAC4A302C682FE
:10348000CA1EE8E14B9FCD5CF91049B16906096A93
:10349000A0FE5502CA067573A46E8DE417C2E8C17A
:1034A000F1729B59786D2175192864D701A3619732
:1034B0000E28A0E49E14542AE4EDF2A81396E51415
:1034C000469321760B78F331080445C31998B73633
:1034D000ECE4346BAFA4E54DF7A8159630B71ACCE1
:1034E0000B1D93840F330F4F768D1755515C74006D
:1034F00081EA32201BDF1CB045C425425B7EC1003F
:1035000042706E8F6F589BBFFB236100A4ACC957FC
:103510002528CFC1E804D7E15440D300D466E99907
:10352000C1138D8F42DBAF7D4F5AE8AC8F31A83A83
:10353000944D9D2A4A05BC56135A5A65BA5AF81F2B
:10354000EC1051F5FC7E84FA2BFE85A9B0C643A38E
:10355000254E890C4A15DBB6EEC30A8FC703AD6D45
:103560006DFDC4C05E2C6F403C338208D003A8F7C9
:1035700079C745E93373F5903D0833C4134D2C707A
:10358000E2C7C4DC8B1172AB988035055469F6DB59
:10359000DC0300BDE5F70FEA92F43CBFC0E860E64B
:1035A0004ECD40E8CF8DFCDA5FC29D0927EDE418CF
:1035B000A9366BB760214102B0CCB16F23313352D1
:1035C0004E64A3DB9F7DB9F3F58166297D1C02B1B2
:1035D000D891A9D41CBF88F91B0CEC714229C2BE3A
:1035E000F9406878E087DAE1356026635057681F54
:1035F0005829ABBB5044F44E01A5AC540266D9DF48
:1036000045026CDCA932071B8DFB9EFFD4C572916D
:10361000CB12D7E0797B99CD60076E70033640847A
:10362000BDEF362844212CA81BC127FC752F273756
:10363000C02E2AAE6B1545C7F9FBD366363A1EEF8E
:10364000A793B8D45222BA352C8CDA70360B01A568
:10365000ACD3B1267AB08E610AA9E59C5D2A8C654F
:1036600011E2F659B451DC715F7E2B577CCE3D19C7
:103670006EC2BB7BD205F5B14B1FCD1863620E49FC
:103680004A5B31113593F2D3E4FAF46EE4E8A04CCE
:1036900099ACBBA272F1D3172B1524E6E1D85626BC
:1036A000AE056A268C2491A231AA8D339341AB31A9
:1036B00088DF157522A55E11773B7E2A1509E292F7
:1036C0004F0DAFD3BEEB2399249BFB63985136D0AB
:1036D000226D28D21724A7F2324788048E9FFD1846
:1036E0002B2C6638FCF7444C7A4876E5D66070EDB2
:1036F0002D1D8AAA15B179B970967C47085A851490
:1037000039369E642CEBFEBA8E703075B88331BFAB
:10371000AFABF22BE232787AE33A2D84153926DD0D
:103720007212959EC8CFCD693CE67CB3B42182204D
:103730001B5049A1B751485B8112E4F290DB422C47
:103740005180E0EC78FDC08A023E1CEACBF0872B6A
:103750003E773848E30CBB517F4B56BEFD4EC02030
:103760000FC58AB537DD41A9B72730FDE3A30B7E2E
:103770006F20C63CC69BFE206ECDBC7CB567A2D434
:10378000E19050C5C9F99DB154B6E3BAEDCF0F84AD
:10379000708AEB4051D4B42692CC2DCBAFB3138CAE
:1037A0006B72BBA07CE661FD3495739CF8902FF89A
:1037B0004466A20A4356F678772A2E8E37BEAA149C
:1037C0005C494D4ACC7208EDEE482A85E056E55931
:1037D0004260D8FC4D2AB02112C2BEB59BEE06E471
:1037E000CF5C0E088E7F39C1708DEF6C025D711455
:1037F000ECCCD81922057B269D98AECCFCA62C5388
:103800000000000102030000000100181920000060
:1038100000000102030000000100181920212223EA
:10382000000102033031B5010018192021222300C4
:103830000102033031B501001819202122230001B3
:1038400002033031B50100181920212223000102A2
:10385000033031B501001819202122230001020391
:103860003031B50100181920212223000102033054
:1038700031B5010018192021222300010203303143
:10388000B50100181920212223000102033031B5AF
:103890000100181920212223000102033031B50153
:1038A00000181920212223000102033031B5010044
:1038B000181920212223000102033031B50100181C
:1038C0001920212223000102033031B5010018190B
:1038D00020212223000102033031B50100181920F4
:1038E000212223000102033031B5010018192021E3
:1038F0002223000102033031B501001819202122D2
:1039000023000102033031B50100181920212223C0
:10391000000102033031B5010018192021222300D3
:103920000102033031B501001819202122230001C2
:1039300002033031B50100181920212223000102B1
:10394000033031B5010018192021222300010203A0
:103950003031B50100181920212223000102033063
:1039600031B5010018192021222300010203303152
:10397000B50100181920212223000102033031B5BE
:103980000100181920212223000102033031B50162
:1039900000181920212223000102033031B5010053
:1039A000181920212223000102033031B50100182B
:1039B0001920212223000102033031B5010018191A
:1039C00020212223000102033031B5010018192003
:1039D000212223000102033031B5010018192021F2
:1039E0002223000102033031B501001819202122E1
:1039F00023000102033031B50100181920212223D0
:103A0000000102033031B5010018192021222300E2
:103A10000102033031B501001819202122230001D1
:103A200002033031B50100181920212223000102C0
:103A3000033031B5010018192021222300010203AF
:103A40003031B50100181920212223000102033072
:103A500031B5010018192021222300010203303161
:103A6000B50100181920212223000102033031B5CD
:103A70000100181920212223000102033031B50171
:103A800000181920212223000102033031B5010062
:103A9000181920212223000102033031B50100183A
:103AA0001920212223000102033031B50100181929
:103AB00020212223000102033031B5010018192012
:103AC000212223000102033031B501001819202101
:103AD0002223000102033031B501001819202122F0
:103AE00023000102033031B50100181920212223DF
:103AF000000102033031B5010018192021222300F2
:103B00000102033031B501001819202122230001E0
:103B100002033031B50100181920212223000102CF
:103B2000033031B5010018192021222300010203BE
:103B30003031B50100181920212223000102033081
:103B400031B5010018192021222300010203303170
:103B5000B50100181920212223000102033031B5DC
:103B60000100181920212223000102033031B50180
:103B700000181920212223000102033031B5010071
:103B8000181920212223000102033031B501001849
:103B90001920212223000102033031B50100181938
:103BA00020212223000102033031B5010018192021
:103BB000212223000102033031B501001819202110
:103BC0002223000102033031B501001819202122FF
:103BD00023000102033031B50100181920212223EE
:103BE000000102033031B501001819202122230001
:103BF0000102033031B501001819202122230001F0
:103C000002033031B50100181920212223000102DE
:103C1000033031B5010018192021222300010203CD
:103C20003031B50100181920212223000102033090
:103C300031B501001819202122230001020330317F
:103C4000B50100181920212223000102033031B5EB
:103C50000100181920212223000102033031B5018F
:103C600000181920212223000102033031B5010080
:103C7000181920212223000102033031B501001858
:103C80001920212223000102033031B50100181947
:103C900020212223000102033031B5010018192030
:103CA000212223000102033031B50100181920211F
:103CB0002223000102033031B5010018192021220E
:103CC00023000102033031B50100181920212223FD
:103CD000000102033031B501001819202122230010
:103CE0000102033031B501001819202122230001FF
:103CF00002033031B50100181920212223000102EE
:103D0000033031B5010018192021222300010203DC
:103D10003031B5010018192021222300010203309F
:103D200031B501001819202122230001020330318E
:103D3000B50100181920212223000102033031B5FA
:103D40000100181920212223000102033031B5019E
:103D500000181920212223000102033031B501008F
:103D6000181920212223000102033031B501001867
:103D70001920212223000102033031B50100181956
:103D800020212223000102033031B501001819203F
:103D9000212223000102033031B50100181920212E
:103DA0002223000102033031B5010018192021221D
:103DB00023000102033031B501001819202122230C
:103DC000000102033031B50100181920212223001F
:103DD0000102033031B5010018192021222300010E
:103DE00002033031B50100181920212223000102FD
:103DF000033031B5010018192021222300010203EC
:103E00003031B501001819202122230001020330AE
:103E100031B501001819202122230001020330319D
:103E2000B50100181920212223000102033031B509
:103E30000100181920212223000102033031B501AD
:103E400000181920212223000102033031B501009E
:103E5000181920212223000102033031B501001876
:103E60001920212223000102033031B50100181965
:103E700020212223000102033031B501001819204E
:103E8000212223000102033031B50100181920213D
:103E90002223000102033031B5010018192021222C
:103EA00023000102033031B501001819202122231B
:103EB000000102033031B50100181920212223002E
:103EC0000102033031B5010018192021222300011D
:103ED00002033031B501001819202122230001020C
:103EE000033031B5010018192021222300010203FB
:103EF0003031B501001819202122230001020330BE
:103F000031B50100181920212223000102033031AC
:103F1000B50100181920212223000102033031B518
:103F20000100181920212223000102033031B501BC
:103F300000181920212223000102033031B50100AD
:103F4000181920212223000102033031B501001885
:103F50001920212223000102033031B50100181974
:103F600020212223000102033031B501001819205D
:103F7000212223000102033031B50100181920214C
:103F80002223000102033031B5010018192021223B
:103F900023000102033031B501001819202122232A
:103FA000000102033031B50100181920212223003D
:103FB0000102033031B5010018192021222300012C
:103FC00002033031B501001819202122230001021B
:103FD000033031B50100181920212223000102030A
:103FE0003031B501001819202122230001020330CD
:103FF00031B50100181920212223000102033031BC
:014000000CB3
:00000001FF